{
  "_format": "hh-sol-artifact-1",
  "contractName": "TokenLock",
  "sourceName": "contracts/TokenLock.sol",
  "abi": [
    {
      "inputs": [
        {
          "internalType": "contract IERC20",
          "name": "token_",
          "type": "address"
        },
        {
          "internalType": "address[]",
          "name": "addresses_",
          "type": "address[]"
        }
      ],
      "stateMutability": "nonpayable",
      "type": "constructor"
    },
    {
      "anonymous": false,
      "inputs": [
        {
          "indexed": false,
          "internalType": "address",
          "name": "_address",
          "type": "address"
        },
        {
          "indexed": false,
          "internalType": "address",
          "name": "_beneficiary",
          "type": "address"
        },
        {
          "indexed": false,
          "internalType": "uint256",
          "name": "_amount",
          "type": "uint256"
        },
        {
          "indexed": false,
          "internalType": "uint256",
          "name": "_releaseTime",
          "type": "uint256"
        },
        {
          "indexed": false,
          "internalType": "uint256",
          "name": "index",
          "type": "uint256"
        }
      ],
      "name": "Lock",
      "type": "event"
    },
    {
      "anonymous": false,
      "inputs": [
        {
          "indexed": false,
          "internalType": "address",
          "name": "_address",
          "type": "address"
        },
        {
          "indexed": false,
          "internalType": "address",
          "name": "_beneficiary",
          "type": "address"
        },
        {
          "indexed": false,
          "internalType": "uint256",
          "name": "_amount",
          "type": "uint256"
        },
        {
          "indexed": false,
          "internalType": "uint256",
          "name": "index",
          "type": "uint256"
        }
      ],
      "name": "Retrieve",
      "type": "event"
    },
    {
      "anonymous": false,
      "inputs": [
        {
          "indexed": false,
          "internalType": "address",
          "name": "_address",
          "type": "address"
        },
        {
          "indexed": false,
          "internalType": "address",
          "name": "_beneficiary",
          "type": "address"
        },
        {
          "indexed": false,
          "internalType": "uint256",
          "name": "_amount",
          "type": "uint256"
        },
        {
          "indexed": false,
          "internalType": "uint256",
          "name": "mask",
          "type": "uint256"
        }
      ],
      "name": "UnLock",
      "type": "event"
    },
    {
      "inputs": [
        {
          "internalType": "address",
          "name": "delegator",
          "type": "address"
        }
      ],
      "name": "addDelegator",
      "outputs": [
        {
          "internalType": "bool",
          "name": "",
          "type": "bool"
        }
      ],
      "stateMutability": "nonpayable",
      "type": "function"
    },
    {
      "inputs": [
        {
          "internalType": "address",
          "name": "address_",
          "type": "address"
        }
      ],
      "name": "addManagedAddress",
      "outputs": [],
      "stateMutability": "nonpayable",
      "type": "function"
    },
    {
      "inputs": [
        {
          "internalType": "address",
          "name": "",
          "type": "address"
        },
        {
          "internalType": "uint256",
          "name": "",
          "type": "uint256"
        }
      ],
      "name": "delegators",
      "outputs": [
        {
          "internalType": "address",
          "name": "",
          "type": "address"
        }
      ],
      "stateMutability": "view",
      "type": "function"
    },
    {
      "inputs": [
        {
          "internalType": "address",
          "name": "ownerAddress",
          "type": "address"
        },
        {
          "internalType": "address",
          "name": "beneficiary",
          "type": "address"
        }
      ],
      "name": "getBeneficiaryLockedAmount",
      "outputs": [
        {
          "internalType": "string",
          "name": "",
          "type": "string"
        }
      ],
      "stateMutability": "view",
      "type": "function"
    },
    {
      "inputs": [
        {
          "internalType": "address",
          "name": "address_",
          "type": "address"
        }
      ],
      "name": "getDelegators",
      "outputs": [
        {
          "internalType": "address[]",
          "name": "",
          "type": "address[]"
        }
      ],
      "stateMutability": "view",
      "type": "function"
    },
    {
      "inputs": [
        {
          "internalType": "address",
          "name": "address_",
          "type": "address"
        }
      ],
      "name": "getLockedAmount",
      "outputs": [
        {
          "internalType": "uint256",
          "name": "",
          "type": "uint256"
        }
      ],
      "stateMutability": "view",
      "type": "function"
    },
    {
      "inputs": [],
      "name": "getManagedAddresses",
      "outputs": [
        {
          "internalType": "address[]",
          "name": "",
          "type": "address[]"
        }
      ],
      "stateMutability": "view",
      "type": "function"
    },
    {
      "inputs": [
        {
          "internalType": "address",
          "name": "address_",
          "type": "address"
        },
        {
          "internalType": "address",
          "name": "delegator",
          "type": "address"
        }
      ],
      "name": "isDelegator",
      "outputs": [
        {
          "internalType": "bool",
          "name": "",
          "type": "bool"
        }
      ],
      "stateMutability": "view",
      "type": "function"
    },
    {
      "inputs": [
        {
          "internalType": "address",
          "name": "",
          "type": "address"
        },
        {
          "internalType": "address",
          "name": "",
          "type": "address"
        }
      ],
      "name": "lockMap",
      "outputs": [
        {
          "internalType": "uint256",
          "name": "count",
          "type": "uint256"
        }
      ],
      "stateMutability": "view",
      "type": "function"
    },
    {
      "inputs": [
        {
          "internalType": "address",
          "name": "address_",
          "type": "address"
        },
        {
          "internalType": "address",
          "name": "beneficiary",
          "type": "address"
        },
        {
          "internalType": "uint256",
          "name": "amountInWei",
          "type": "uint256"
        },
        {
          "internalType": "uint256",
          "name": "releaseTime",
          "type": "uint256"
        }
      ],
      "name": "lockToken",
      "outputs": [],
      "stateMutability": "nonpayable",
      "type": "function"
    },
    {
      "inputs": [
        {
          "internalType": "address",
          "name": "",
          "type": "address"
        }
      ],
      "name": "lockedAmount",
      "outputs": [
        {
          "internalType": "uint256",
          "name": "",
          "type": "uint256"
        }
      ],
      "stateMutability": "view",
      "type": "function"
    },
    {
      "inputs": [
        {
          "internalType": "address",
          "name": "address_",
          "type": "address"
        },
        {
          "internalType": "address",
          "name": "beneficiary",
          "type": "address"
        },
        {
          "internalType": "uint256",
          "name": "index",
          "type": "uint256"
        }
      ],
      "name": "releaseToken",
      "outputs": [],
      "stateMutability": "nonpayable",
      "type": "function"
    },
    {
      "inputs": [
        {
          "internalType": "address",
          "name": "address_",
          "type": "address"
        },
        {
          "internalType": "address",
          "name": "beneficiary",
          "type": "address"
        },
        {
          "internalType": "uint256",
          "name": "index",
          "type": "uint256"
        }
      ],
      "name": "retrieveToken",
      "outputs": [],
      "stateMutability": "nonpayable",
      "type": "function"
    },
    {
      "inputs": [
        {
          "internalType": "address",
          "name": "delegator",
          "type": "address"
        }
      ],
      "name": "revokeDelegator",
      "outputs": [
        {
          "internalType": "bool",
          "name": "",
          "type": "bool"
        }
      ],
      "stateMutability": "nonpayable",
      "type": "function"
    },
    {
      "inputs": [
        {
          "internalType": "uint256",
          "name": "value",
          "type": "uint256"
        }
      ],
      "name": "toString",
      "outputs": [
        {
          "internalType": "string",
          "name": "",
          "type": "string"
        }
      ],
      "stateMutability": "pure",
      "type": "function"
    },
    {
      "inputs": [
        {
          "internalType": "bytes",
          "name": "data",
          "type": "bytes"
        }
      ],
      "name": "toString",
      "outputs": [
        {
          "internalType": "string",
          "name": "",
          "type": "string"
        }
      ],
      "stateMutability": "pure",
      "type": "function"
    }
  ],
  "bytecode": "0x60806040523480156200001157600080fd5b5060405162002782380380620027828339810160408190526200003491620000e8565b600080546001600160a01b0319166001600160a01b0384161781555b8151811015620000cd5760018282815181106200007d57634e487b7160e01b600052603260045260246000fd5b60209081029190910181015182546001810184556000938452919092200180546001600160a01b0319166001600160a01b0390921691909117905580620000c481620001d4565b91505062000050565b5050506200022b565b8051620000e38162000212565b919050565b60008060408385031215620000fb578182fd5b8251620001088162000212565b602084810151919350906001600160401b038082111562000127578384fd5b818601915086601f8301126200013b578384fd5b815181811115620001505762000150620001fc565b838102604051601f19603f83011681018181108582111715620001775762000177620001fc565b604052828152858101935084860182860187018b101562000196578788fd5b8795505b83861015620001c357620001ae81620000d6565b8552600195909501949386019386016200019a565b508096505050505050509250929050565b6000600019821415620001f557634e487b7160e01b81526011600452602481fd5b5060010190565b634e487b7160e01b600052604160045260246000fd5b6001600160a01b03811681146200022857600080fd5b50565b612547806200023b6000396000f3fe608060405234801561001057600080fd5b50600436106101005760003560e01c8063929ec53711610097578063c569476111610066578063c56947611461022a578063ca89ab9c1461023d578063e1955f4714610250578063e4ddc77c1461026357610100565b8063929ec537146101d15780639cf837c3146101f1578063a0e1192914610204578063a153e7081461021757610100565b80636d098560116100d35780636d098560146101765780636f6f58091461018b57806371aad10d146101ab5780637ad47ac3146101be57610100565b80631dd45b1e1461010557806321fb4c351461012357806368e76346146101435780636900a3ae14610156575b600080fd5b61010d610276565b60405161011a919061216d565b60405180910390f35b610136610131366004611de9565b6102d8565b60405161011a91906121ba565b61010d610151366004611de9565b6103d7565b610169610164366004611fa4565b61044d565b60405161011a91906121c5565b610189610184366004611e35565b61047d565b005b61019e610199366004611eb1565b6109f2565b60405161011a91906120c2565b6101696101b9366004611efa565b610a2a565b6101896101cc366004611e35565b610cc1565b6101e46101df366004611de9565b61102e565b60405161011a91906120b9565b6101696101ff366004611e03565b611049565b610136610212366004611e03565b6112bc565b6101e4610225366004611de9565b61135e565b6101e4610238366004611e03565b611370565b61013661024b366004611de9565b61138d565b61018961025e366004611de9565b611566565b610189610271366004611e70565b611626565b606060018054806020026020016040519081016040528092919081815260200182805480156102ce57602002820191906000526020600020905b81546001600160a01b031681526001909101906020018083116102b0575b5050505050905090565b60006102e3336119fc565b6103085760405162461bcd60e51b81526004016102ff90612246565b60405180910390fd5b60005b336000908152600260205260409020548110156103945733600090815260026020526040902080546001600160a01b03851691908390811061035d57634e487b7160e01b600052603260045260246000fd5b6000918252602090912001546001600160a01b031614156103825760009150506103d2565b8061038c816124aa565b91505061030b565b50503360009081526002602090815260408220805460018082018355918452919092200180546001600160a01b0319166001600160a01b0384161790555b919050565b6001600160a01b03811660009081526002602090815260409182902080548351818402810184019094528084526060939283018282801561044157602002820191906000526020600020905b81546001600160a01b03168152600190910190602001808311610423575b50505050509050919050565b60606104778260405160200161046391906120b9565b604051602081830303815290604052610a2a565b92915050565b610486836119fc565b6104a25760405162461bcd60e51b81526004016102ff90612246565b336001600160a01b03841614806104be57506104be83336112bc565b6104da5760405162461bcd60e51b81526004016102ff906122b9565b60408051600c8082526101a082019092526000918291829160208201610180803683370190505090508360ff14156106315760005b6001600160a01b038088166000908152600360209081526040808320938a168352929052205481101561062b576001600160a01b038088166000908152600360209081526040808320938a16835292905220600d0181600c811061058357634e487b7160e01b600052603260045260246000fd5b01544210610619576001600160a01b038088166000908152600360209081526040808320938a1683529290522060010181600c81106105d257634e487b7160e01b600052603260045260246000fd5b01546105de9085612430565b93508082846105ec816124aa565b95508151811061060c57634e487b7160e01b600052603260045260246000fd5b6020026020010181815250505b80610623816124aa565b91505061050f565b5061070e565b6001600160a01b038087166000908152600360209081526040808320938916835292905220600d0184600c811061067857634e487b7160e01b600052603260045260246000fd5b0154421061070e576001600160a01b03808716600090815260036020908152604080832093891683529290522060010184600c81106106c757634e487b7160e01b600052603260045260246000fd5b01546106d39084612430565b92508381836106e1816124aa565b94508151811061070157634e487b7160e01b600052603260045260246000fd5b6020026020010181815250505b6000821161072e5760405162461bcd60e51b81526004016102ff906122f0565b6000805b8381101561086d576001600160a01b038089166000908152600360209081526040808320938b168352929052908120845160019091019085908490811061078957634e487b7160e01b600052603260045260246000fd5b6020026020010151600c81106107af57634e487b7160e01b600052603260045260246000fd5b01556001600160a01b038089166000908152600360209081526040808320938b1683529290529081208451600d9091019085908490811061080057634e487b7160e01b600052603260045260246000fd5b6020026020010151600c811061082657634e487b7160e01b600052603260045260246000fd5b0155825183908290811061084a57634e487b7160e01b600052603260045260246000fd5b60200260200101516001901b821791508080610865906124aa565b915050610732565b506001600160a01b038088166000908152600360209081526040808320938a16835292905290812080548592906108a5908490612467565b90915550506001600160a01b038088166000908152600360209081526040808320938a168352929052205461091d576001600160a01b038088166000908152600360209081526040808320938a1683529290529081208181559061090c6001830182611d51565b61091a600d83016000611d51565b50505b600054610934906001600160a01b03168786611a72565b7fc5cfc121ba9b038fe81c6458a02bc09c797139a3983ae18ad2b68a634297fc278787868460405161096994939291906120fa565b60405180910390a16001600160a01b038716600090815260046020526040902054610995908590612467565b60046000896001600160a01b03166001600160a01b03168152602001908152602001600020819055506109e96040518060400160405280600781526020016672656c6561736560c81b815250888887611acd565b50505050505050565b60026020528160005260406000208181548110610a0e57600080fd5b6000918252602090912001546001600160a01b03169150829050565b60408051808201909152601081526f181899199a1a9b1b9c1cb0b131b232b360811b6020820152815160609190600090610a65906002612448565b610a70906002612430565b67ffffffffffffffff811115610a9657634e487b7160e01b600052604160045260246000fd5b6040519080825280601f01601f191660200182016040528015610ac0576020820181803683370190505b509050600360fc1b81600081518110610ae957634e487b7160e01b600052603260045260246000fd5b60200101906001600160f81b031916908160001a905350600f60fb1b81600181518110610b2657634e487b7160e01b600052603260045260246000fd5b60200101906001600160f81b031916908160001a90535060005b8451811015610cb957826004868381518110610b6c57634e487b7160e01b600052603260045260246000fd5b016020015182516001600160f81b031990911690911c60f81c908110610ba257634e487b7160e01b600052603260045260246000fd5b01602001516001600160f81b03191682610bbd836002612448565b610bc8906002612430565b81518110610be657634e487b7160e01b600052603260045260246000fd5b60200101906001600160f81b031916908160001a90535082858281518110610c1e57634e487b7160e01b600052603260045260246000fd5b602091010151815160f89190911c600f16908110610c4c57634e487b7160e01b600052603260045260246000fd5b01602001516001600160f81b03191682610c67836002612448565b610c72906003612430565b81518110610c9057634e487b7160e01b600052603260045260246000fd5b60200101906001600160f81b031916908160001a90535080610cb1816124aa565b915050610b40565b509392505050565b610cca836119fc565b610ce65760405162461bcd60e51b81526004016102ff90612246565b336001600160a01b0384161480610d025750610d0283336112bc565b610d1e5760405162461bcd60e51b81526004016102ff906122b9565b6001600160a01b0380841660009081526003602090815260408083209386168352929052205415801590610d9a57506001600160a01b038084166000908152600360209081526040808320938616835292905290812060010182600c8110610d9657634e487b7160e01b600052603260045260246000fd5b0154115b610db65760405162461bcd60e51b81526004016102ff90612406565b6001600160a01b038084166000908152600360209081526040808320938616835292905290812060010182600c8110610dff57634e487b7160e01b600052603260045260246000fd5b01546001600160a01b03808616600090815260036020908152604080832093881683529290529081209192509060010183600c8110610e4e57634e487b7160e01b600052603260045260246000fd5b01556001600160a01b0380851660009081526003602090815260408083209387168352929052908120600d0183600c8110610e9957634e487b7160e01b600052603260045260246000fd5b01556001600160a01b0380851660009081526003602090815260408083209387168352929052908120805460019290610ed3908490612467565b90915550506001600160a01b03808516600090815260036020908152604080832093871683529290522054610f4b576001600160a01b038085166000908152600360209081526040808320938716835292905290812081815590610f3a6001830182611d51565b610f48600d83016000611d51565b50505b600054610f62906001600160a01b03168583611a72565b7f9d60f0403eac0553cfce77880fc61018e4c1138b922228fef15350071162f13184848385604051610f9794939291906120fa565b60405180910390a16001600160a01b038416600090815260046020526040902054610fc3908290612467565b6001600160a01b0380861660008181526004602090815260408083209590955584518086018652600d81526c3932ba3934b2bb32aa37b5b2b760991b818301529282526003815284822093881682529290925291902054611028919085908490611b16565b50505050565b6001600160a01b031660009081526004602052604090205490565b6001600160a01b03808316600090815260036020908152604080832093851683529290522054606090156112a65760008060005b600c811015611235576001600160a01b038087166000908152600360209081526040808320938916835292905290812060010182600c81106110cf57634e487b7160e01b600052603260045260246000fd5b0154111561112d576001600160a01b03808716600090815260036020908152604080832093891683529290522060010181600c811061111e57634e487b7160e01b600052603260045260246000fd5b015461112a9084612430565b92505b6001600160a01b0380871660009081526003602090815260408083209389168352929052908120600d0182600c811061117657634e487b7160e01b600052603260045260246000fd5b01541115611223578115806111d257506001600160a01b038087166000908152600360209081526040808320938916835292905220600d0181600c81106111cd57634e487b7160e01b600052603260045260246000fd5b015482115b15611223576001600160a01b038087166000908152600360209081526040808320938916835292905220600d0181600c811061121e57634e487b7160e01b600052603260045260246000fd5b015491505b8061122d816124aa565b91505061107d565b506001600160a01b0380861660009081526003602090815260408083209388168352929052908120546112679061044d565b6112708461044d565b6112798461044d565b60405160200161128b93929190612004565b60408051601f19818403018152919052935061047792505050565b5060408051602081019091526000815292915050565b6000805b6001600160a01b038416600090815260026020526040902054811015611354576001600160a01b0384811660009081526002602052604090208054918516918390811061131d57634e487b7160e01b600052603260045260246000fd5b6000918252602090912001546001600160a01b03161415611342576001915050610477565b8061134c816124aa565b9150506112c0565b5060009392505050565b60046020526000908152604090205481565b600360209081526000928352604080842090915290825290205481565b6000611398336119fc565b6113b45760405162461bcd60e51b81526004016102ff90612246565b60005b3360009081526002602052604090205481101561155d5733600090815260026020526040902080546001600160a01b03851691908390811061140957634e487b7160e01b600052603260045260246000fd5b6000918252602090912001546001600160a01b0316141561154b573360009081526002602052604090205461144090600190612467565b81101561154b57336000908152600260205260409020805461146490600190612467565b8154811061148257634e487b7160e01b600052603260045260246000fd5b60009182526020808320909101543383526002909152604090912080546001600160a01b0390921691839081106114c957634e487b7160e01b600052603260045260246000fd5b600091825260208083209190910180546001600160a01b0319166001600160a01b03949094169390931790925533815260029091526040902080548061151f57634e487b7160e01b600052603160045260246000fd5b600082815260209020810160001990810180546001600160a01b031916905501905550600190506103d2565b80611555816124aa565b9150506113b7565b50600092915050565b60005b60015460ff821610156115d757816001600160a01b031660018260ff16815481106115a457634e487b7160e01b600052603260045260246000fd5b6000918252602090912001546001600160a01b031614156115c55750611623565b806115cf816124c5565b915050611569565b506001805480820182556000919091527fb10e2d527612073b26eecdfd717e6a320cf44b4afac2b0732d9fcbe2b7fa0cf60180546001600160a01b0319166001600160a01b0383161790555b50565b61162f846119fc565b61164b5760405162461bcd60e51b81526004016102ff90612246565b336001600160a01b0385161480611667575061166784336112bc565b6116835760405162461bcd60e51b81526004016102ff906122b9565b826001600160a01b0316846001600160a01b031614156116b55760405162461bcd60e51b81526004016102ff906123cf565b6001600160a01b03808516600090815260036020908152604080832093871683529290522054600c116116fa5760405162461bcd60e51b81526004016102ff90612327565b600054611712906001600160a01b0316853085611b5f565b6001600160a01b03808516600090815260036020908152604080832093871683529290522054600c906117cf57611747611d60565b61174f611d60565b84825283815260408051606081018252600180825260208281018681528385018690526001600160a01b038c8116600090815260038452868120918d16815292529390208251815592519192916117aa91830190600c611d7f565b5060408201516117c090600d830190600c611d7f565b50905050600092505050611931565b60005b600c811015611842576001600160a01b03808716600090815260036020908152604080832093891683529290522060010181600c811061182257634e487b7160e01b600052603260045260246000fd5b015461183057809150611842565b8061183a816124aa565b9150506117d2565b50600c81141561186257634e487b7160e01b600052600160045260246000fd5b6001600160a01b038086166000908152600360209081526040808320938816835292905220839060010182600c81106118ab57634e487b7160e01b600052603260045260246000fd5b01556001600160a01b0380861660009081526003602090815260408083209388168352929052208290600d0182600c81106118f657634e487b7160e01b600052603260045260246000fd5b01556001600160a01b038086166000908152600360209081526040808320938816835292905290812080549161192b836124aa565b91905055505b7f9e91fc08a6b9ad305ed9692fc37e5c77042b1828c424b7b406bedacaf76aa8988585858585604051611968959493929190612123565b60405180910390a16001600160a01b038516600090815260046020526040902054611994908490612430565b6001600160a01b038087166000818152600460209081526040808320959095558451808601865260098152683637b1b5aa37b5b2b760b91b8183015292825260038152848220938916825292909252919020546119f5919086908690611b16565b5050505050565b6000805b60015460ff8216101561155d57826001600160a01b031660018260ff1681548110611a3b57634e487b7160e01b600052603260045260246000fd5b6000918252602090912001546001600160a01b03161415611a605760019150506103d2565b80611a6a816124c5565b915050611a00565b611ac88363a9059cbb60e01b8484604051602401611a91929190612154565b60408051601f198184030181529190526020810180516001600160e01b03166001600160e01b031990931692909217909152611b80565b505050565b61102884848484604051602401611ae794939291906121d8565b60408051601f198184030181529190526020810180516001600160e01b0316636eb7943d60e01b179052611c0f565b61102884848484604051602401611b30949392919061220e565b60408051601f198184030181529190526020810180516001600160e01b031663daa394bd60e01b179052611c0f565b611028846323b872dd60e01b858585604051602401611a91939291906120d6565b6000611bd5826040518060400160405280602081526020017f5361666545524332303a206c6f772d6c6576656c2063616c6c206661696c6564815250856001600160a01b0316611c309092919063ffffffff16565b805190915015611ac85780806020019051810190611bf39190611eda565b611ac85760405162461bcd60e51b81526004016102ff90612385565b80516a636f6e736f6c652e6c6f67602083016000808483855afa5050505050565b6060611c3f8484600085611c49565b90505b9392505050565b606082471015611c6b5760405162461bcd60e51b81526004016102ff90612273565b611c7485611d09565b611c905760405162461bcd60e51b81526004016102ff9061234e565b600080866001600160a01b03168587604051611cac9190611fe8565b60006040518083038185875af1925050503d8060008114611ce9576040519150601f19603f3d011682016040523d82523d6000602084013e611cee565b606091505b5091509150611cfe828286611d18565b979650505050505050565b6001600160a01b03163b151590565b60608315611d27575081611c42565b825115611d375782518084602001fd5b8160405162461bcd60e51b81526004016102ff91906121c5565b5061162390600c810190611dbd565b604051806101800160405280600c906020820280368337509192915050565b82600c8101928215611dad579160200282015b82811115611dad578251825591602001919060010190611d92565b50611db9929150611dbd565b5090565b5b80821115611db95760008155600101611dbe565b80356001600160a01b03811681146103d257600080fd5b600060208284031215611dfa578081fd5b611c4282611dd2565b60008060408385031215611e15578081fd5b611e1e83611dd2565b9150611e2c60208401611dd2565b90509250929050565b600080600060608486031215611e49578081fd5b611e5284611dd2565b9250611e6060208501611dd2565b9150604084013590509250925092565b60008060008060808587031215611e85578081fd5b611e8e85611dd2565b9350611e9c60208601611dd2565b93969395505050506040820135916060013590565b60008060408385031215611ec3578182fd5b611ecc83611dd2565b946020939093013593505050565b600060208284031215611eeb578081fd5b81518015158114611c42578182fd5b600060208284031215611f0b578081fd5b813567ffffffffffffffff80821115611f22578283fd5b818401915084601f830112611f35578283fd5b813581811115611f4757611f476124fb565b604051601f8201601f19908116603f01168101908382118183101715611f6f57611f6f6124fb565b81604052828152876020848701011115611f87578586fd5b826020860160208301379182016020019490945295945050505050565b600060208284031215611fb5578081fd5b5035919050565b60008151808452611fd481602086016020860161247e565b601f01601f19169290920160200192915050565b60008251611ffa81846020870161247e565b9190910192915050565b691131b7bab73a111d101160b11b8152835160009061202a81600a85016020890161247e565b601160f91b600a9184019182018190526c16101130b6b7bab73a111d101160991b600b8301528551612063816018850160208a0161247e565b60189201918201819052711610113932b632b0b9b2aa34b6b2911d101160711b6019830152845161209b81602b85016020890161247e565b602b920191820152607d60f81b602c820152602d0195945050505050565b90815260200190565b6001600160a01b0391909116815260200190565b6001600160a01b039384168152919092166020820152604081019190915260600190565b6001600160a01b0394851681529290931660208301526040820152606081019190915260800190565b6001600160a01b03958616815293909416602084015260408301919091526060820152608081019190915260a00190565b6001600160a01b03929092168252602082015260400190565b6020808252825182820181905260009190848201906040850190845b818110156121ae5783516001600160a01b031683529284019291840191600101612189565b50909695505050505050565b901515815260200190565b600060208252611c426020830184611fbc565b6000608082526121eb6080830187611fbc565b6001600160a01b0395861660208401529390941660408201526060015292915050565b6000608082526122216080830187611fbc565b6001600160a01b03959095166020830152506040810192909252606090910152919050565b6020808252601390820152726e6f74206d616e61676564206164647265737360681b604082015260600190565b60208082526026908201527f416464726573733a20696e73756666696369656e742062616c616e636520666f6040820152651c8818d85b1b60d21b606082015260800190565b60208082526019908201527f6e6f7420616e206f776e6572206f722064656c656761746f7200000000000000604082015260600190565b60208082526018908201527f72656c656173652074696d65206e6f7420726561636865640000000000000000604082015260600190565b6020808252600d908201526c6e6f206d6f7265206c6f636b7360981b604082015260600190565b6020808252601d908201527f416464726573733a2063616c6c20746f206e6f6e2d636f6e7472616374000000604082015260600190565b6020808252602a908201527f5361666545524332303a204552433230206f7065726174696f6e20646964206e6040820152691bdd081cdd58d8d9595960b21b606082015260800190565b6020808252601d908201527f62656e656669636961727920616e64206f776e65722069732073616d65000000604082015260600190565b60208082526010908201526f1b9bc81b1bd8dad95908185b5bdd5b9d60821b604082015260600190565b60008219821115612443576124436124e5565b500190565b6000816000190483118215151615612462576124626124e5565b500290565b600082821015612479576124796124e5565b500390565b60005b83811015612499578181015183820152602001612481565b838111156110285750506000910152565b60006000198214156124be576124be6124e5565b5060010190565b600060ff821660ff8114156124dc576124dc6124e5565b60010192915050565b634e487b7160e01b600052601160045260246000fd5b634e487b7160e01b600052604160045260246000fdfea2646970667358221220d2e9b1f0fa48837aaf4fdd77e1e17abb0c80556c806b5c522a48c09a9b7d078a64736f6c63430008010033",
  "linkReferences": {},
  "deployedLinkReferences": {}
}